:100000000C948A020C94D1020C94D1020C94D1026B
:100010000C94D1020C94D1020C94D1020C94D10214
:100020000C94D1020C94D1020C94CD220C949F23F9
:100030000C94671C0C94D1020C94D1020C94D10244
:100040000C94D1020C94D1020C94D1020C94D102E4
:100050000C94D1020C94C01C0C94D1020C94D102CB
:100060000C94D1020C94D1020C94D1020C94D102C4
:100070000C94D1020C94D1020C94D1020C94D102B4
:100080000C94D1020C94D1020C94D1020C94D102A4
:100090000C94D1020C94D1020C94D1020C94D10294
:1000A0000C94D1020C94D1020C94D102C911C91143
:1000B000FB11FB1141125F127F137F136A12FF12B3
:1000C000101310136F137F137F1378132D142D1437
:1000D0003F143F1436143F143F143F142D142D14B5
:1000E0003B143F143F143B140C2433242B2533249E
:1000F0002B257F24A2242B25F924082529001E0066
:100100001F0020002100220001530253230024007D
:100110002500260027004C002B0014001A000800C0
:1001200015001700350034001C0018000C001200E8
:1001300013003100000004001600070009000A0047
:10014000000000000B000D000E000F00330028001F
:10015000E1001D001B000600190005002D002E0007
:1001600011001000360037003800E500E000E30021
:10017000E20050004F0000000000000000005200AC
:1001800051002F003000E40000004D002A002C0038
:100190004A0029004900390046004B00E1002B00CD
:1001A0004E00000000003A003B003C003D003E00D5
:1001B000010001003F0040004100420043004400B4
:1001C00001001E021F022F02300231020100010055
:1001D0005200240025002600250245003900200297
:1001E00021022602270235000000000051002100F4
:1001F000220023002E0201000100220223022F0010
:10020000300035020100010024021E001F00200002
:1002100031000100DF5C010001000100010000006D
:100220000000000000000100370027002E00010040
:1002300000000100CA5CCB5C0100C45C0100C35C2F
:10024000CE5C0100C65CC75C01000000010001003B
:100250000100010001000100010001000100010096
:100260000100010001000100010001000100ED009A
:100270000100010001000100010001000100010076
:100280000100010001000100EF00EE00F00001009C
:100290000000000001000100010001000100AE00AB
:1002A0000100010001000100010001000100010046
:1002B00001000100AC00AB000100010001000100E1
:1002C0000100F100F2000000000000000000A900A1
:1002D000AA00A800010001000000010001000100C7
:1002E000010001000100010001000100B600010051
:1002F0000100000000000000000000002A2B280080
:1003000000000000000000000000000000000029C4
:10031000000000002C1E3420212224342627252E04
:10032000362D3738271E1F2021222324252633333C
:10033000362E37381F0405060708090A0B0C0D0E68
:100340000F101112131415161718191A1B1C1D2F34
:100350003130232D350405060708090A0B0C0D0E54
:100360000F101112131415161718191A1B1C1D2F14
:100370003130354C0000000000000000000000009B
:10038000000000000000000000000000000000006D
:1003900000000000000000007E0F00D4FFFFFFC738
:1003A0000000007812034500720067006F004400EF
:1003B0006F006E006500000012034B002E00540019
:1003C0002E0045002E0043002E0000000403090407
:1003D00009023B00020100A0FA0904000001030128
:1003E00001000921110100012240000705810308D5
:1003F000000A0904010001030000000921110100A5
:100400000122B6000705820320000A120110010034
:10041000000008091228230100010200010501095A
:1004200002A10185020901A1000509190129081588
:100430000025019508750181020501093009311572
:1004400081257F95027508810609381581257F95DC
:100450000175088106050C0A38021581257F950172
:1004600075088106C0C005010980A1018503190135
:100470002AB700150126B700950175108100C00547
:100480000C0901A101850419012AA002150126A069
:1004900002950175108100C005010906A1018505BD
:1004A000050719E029E71500250195087501810266
:1004B0000507190029EF1500250195F07501810246
:1004C0000508190129059505750191029501750326
:1004D0009101C005010906A101050719E029E715E9
:1004E00000250195087501810295017508810105B6
:1004F00007190029FF150026FF00950675088100E1
:1005000005081901290595057501910295017503E5
:100510009101C00011241FBECFEFDAE0DEBFCDBFD6
:1005200004B603FE27C08091E2029091E302A091FD
:10053000E402B091E5028730904BA740B04BD1F474
:100540001092E2021092E3021092E4021092E5028D
:1005500014BE84B7877F84BF0FB6F894A8958091A6
:100560006000886180936000109260000FBEE0E040
:10057000F8E3099511E0A0E0B1E0E2EAFBE402C093
:1005800005900D92A637B107D9F722E0A6E7B1E0B2
:1005900001C01D92A23EB207E1F70E9405200C9413
:1005A000CF250C9400001092B9008AE08093B80027
:1005B000089594EA9093BC009091BC0097FFFCCF03
:1005C0009091B900987F983021F0903111F081E03E
:1005D00008958093BB0084E88093BC008091BC00A8
:1005E00087FFFCCF8091B900887F883111F080347B
:1005F00071F780E008950C94D90284E98093BC00DF
:100600008091BC0084FDFCCF08958093BB0084E8FA
:100610008093BC008091BC0087FFFCCF9091B90013
:10062000987F81E0983209F480E0089584E880930F
:10063000BC008091BC0087FFFCCF8091BB00089577
:1006400080B38F7080BB81B38F7081BB84B1897F91
:1006500084B985B1897F85B90C949E046E98769A89
:100660008AB183768AB98BB18C698BB93E98469AE8
:1006700024982C9A0C94D30408950C943C030C9465
:100680003C030E9420030E942E03ECECF1E088E77B
:1006900091E011921192DC012EE01D922150E9F7B8
:1006A0000E9621E08C3C9207A1F70C944C060E9418
:1006B00020030E942E03ECECF1E0118210821382E1
:1006C0001282158214821782168211861086138672
:1006D000128608952EE0829FC0011124FC01E85883
:1006E000FE4F20E030E040E050E061E070E09081BB
:1006F000992319F09150908309C0CB01022E02C0BA
:10070000880F991F0A94E2F7482B592B2F5F3F4F10
:1007100031962E30310559F7CA010895CF932EE056
:10072000629FB001112420E030E0A1E0B0E0C5E01C
:10073000AD01022E02C0440F551F0A94E2F7482370
:100740005923452B31F0FB01E20FF31FE858FE4F10
:10075000C0832F5F3F4F2E30310551F7CF91089561
:100760004F925F927F928F929F92AF92BF92CF9261
:10077000DF92EF92FF920F931F93CF93DF930E942C
:10078000B9040CEC11E0C0E0D1E0C33099F028F4DA
:10079000C13051F0C23059F004C0C43071F0C530DE
:1007A00079F0849A8C980EC0859A8D980BC0869AA1
:1007B0008E9808C0879A8F9805C0219A299802C000
:1007C000229A2A988C2F0E94A20480EA8A95F1F737
:1007D0008C2F0E946A035C010E9404054B9904C09F
:1007E00060E4E62EF12C02C0E12CF12C4A9903C002
:1007F000A0E2B0E002C0A0E0B0E04C9904C050E13B
:10080000452E512C02C0412C512C369903C068E072
:1008100070E002C060E070E029B1022E000C330BE2
:10082000209530952227330F221F3327220F331FA5
:10083000220F331F669903C042E050E002C040E03F
:1008400050E073B0F801C080D1807294EFE07E2256
:100850007D2670FA882480F8912C882999298E2980
:100860009F298A2B9B2BF201E82BF92B6E2B7F2BD8
:10087000262B372B422B532B4C255D25A422B5224A
:10088000AC24BD246C2FC6018A259B250E948E03B3
:10089000F801A192B1928F010E942003CF5FC63070
:1008A00009F073CF0E94560681E0DF91CF911F912E
:1008B0000F91FF90EF90DF90CF90BF90AF909F90FF
:1008C0008F907F905F904F900895E82FF0E0EE0FAB
:1008D000FF1FE453FE4F8081918108950895853074
:1008E00008F08F5F2091D80130E0A90102C0559532
:1008F00047958A95E2F7CA01817008951F93CF93B7
:10090000DF93C091D901CC23A1F0D62F182F80E41A
:100910000E94D902C82F81110AC0812F0E940503AD
:10092000C82F811104C08D2F0E940503C82F0E947B
:10093000FD028C2FDF91CF911F9108956FEF81E021
:100940000C947E048F5F61E070E001C0660F8A95B1
:10095000EAF7609581E00C947E046FEF82E00E94DC
:100960007E046FEF8CE00E947E046FEF81E00C94B8
:100970007E0480E40E94D90281110CC00E94FD0215
:100980008091D90181110EC081E08093D9010E942C
:10099000AD0406C08091D901813021F41092D901B3
:1009A0000C941B1408950E94D3020C94B9040F9365
:1009B0001F93CF93DF93C091D901CC23D1F08B014A
:1009C000D82F80E40E94D902C82F811110C08D2F2A
:1009D0000E940503C82F81110AC081E40E94FB0216
:1009E000C82F811104C00E941603F80180830E9461
:1009F000FD028C2FDF91CF911F910F91089568ED2B
:100A000071E082E10C94D7048F929F92AF92BF92D3
:100A1000EF92FF920F931F93CF93DF930E94FF04F7
:100A2000C0E0D0E000E010E08DE0E82EF12C812C59
:100A3000912C540183948C2F0E946F04882371F0B1
:100A4000C7018C1B9D0BA501940104C0220F331F0D
:100A5000441F551F8A95D2F7022B132B2196CE30B7
:100A6000D10549F7C801DF91CF911F910F91FF90F8
:100A7000EF90BF90AF909F908F90089584B188665B
:100A800084B985B1877985B9209A289A559A5D9A53
:100A9000089525982D9826982E9823982B9820987D
:100AA000289A259A2D9A2FEF80E792E021508040D6
:100AB0009040E1F700C00000269A2E9A2FEF80E7C1
:100AC00092E0215080409040E1F700C00000239A5E
:100AD0002B9A2FEF80E792E0215080409040E1F781
:100AE00000C0000025982D982FEF80E792E021505C
:100AF00080409040E1F700C0000026982E982FEF2C
:100B000080E792E0215080409040E1F700C0000073
:100B100023982B9825982D9826982E9823982B98D3
:100B20002098289A08950E943E050E9449050C9439
:100B30003D039C013A9521153F4138F5DC01AA2778
:100B4000B270AC01442754709C012227387094FF86
:100B50000FC090FF02C080E101C080E0AB2B09F024
:100B60008062452B09F08064232B69F080680BC0FC
:100B7000892F8170AB2B09F08260452B09F08460CE
:100B8000232B09F08860FB0109940895CF93DF932C
:100B9000EC01805E9109089710F0209719F468E83D
:100BA00071E102C063EF73E1CE010E9499058C2FC1
:100BB000DF91CF910C945610CF93DF93EC010E94FC
:100BC0000011CE01805E9109089710F0209719F46A
:100BD0006FE871E102C06AEF73E1CE01DF91CF915E
:100BE0000C949905CF93DF93EC010E94C605CE01CA
:100BF000DF91CF910C94DC0581E0089581E00895A8
:100C00000C94FE0508950C9402061F93CF93DF9376
:100C100000D000D01F92CDB7DEB749835A836B83D3
:100C20003091080289819A81311114C0662359F0EC
:100C3000222349F00E946619182F682F89819A8112
:100C40000E940F1903C00E943A19182F69817A81F6
:100C5000812F04C00E94661969817A810F900F90DC
:100C60000F900F900F90DF91CF911F910C942F0751
:100C7000FC01262F408151816281738184810C9413
:100C80000506CF93DF93EC0160E00E943806BE01B9
:100C9000DF91CF910C9403060E949D1A811102C02E
:100CA0000E944E1B0E94E10B0C9493050C943F0391
:100CB00008950E941B140E9458062FEF84E39CE0C5
:100CC000215080409040E1F700C000000C94E61CE9
:100CD0000F931F93CF93DF93EC0161E00E943806DE
:100CE0008C01BE010E940006882379F1BE01C80173
:100CF0000E94690C882349F1BE01C8010E94FA0CC8
:100D0000882319F1BE01C8010E944C0D8823E9F027
:100D1000BE01C8010E94770E8823B9F08A8188231A
:100D200069F001158CE5180731F00F3D1C4531F4D1
:100D30000E944E1B0AC00E94590607C0CE01DF91D7
:100D4000CF911F910F910C94FC0580E0DF91CF9122
:100D50001F910F910895DF92EF92FF920F931F93CF
:100D6000CF93DF93E82FF0E0EC50FD4FD490282F85
:100D700026952695269530E0F901EC56FC4F049116
:100D8000877010E0082E02C0159507950A94E2F7C7
:100D900001701127F901EC57FC4FE490F12C082E5B
:100DA00002C0F594E7940A94E2F791E0E922FF2467
:100DB000F901EC58FC4FC491D0E002C0D595C7951D
:100DC0008A95E2F7C170DD270115110519F081EE52
:100DD0000E945610E114F10419F086EE0E9456109C
:100DE0008D2D0E947F11EF2819F086EE0E940011D0
:100DF000012B19F081EE0E940011CD2B51F08CE2F5
:100E0000DF91CF911F910F91FF90EF90DF900C94A5
:100E10007F11DF91CF911F910F91FF90EF90DF90A5
:100E20000895982F9F709A50963010F0805D01C001
:100E3000895A0C94AB0608950C941B0781E0089521
:100E40000C941E07CF93C82F0E941C078C2F0E9462
:100E50002007CF91089580E090E00895089524E55B
:100E6000829FC0011124FC012EE0729FE00DF11D54
:100E70001124E60FF11DEE0FFF1FE450FF4F859187
:100E800094910895880F991FFC01EC55FC4F8591B2
:100E900094910895CF93DF930E942F070E946208D8
:100EA000EC018115904508F041C0C11580E4D807D8
:100EB00008F0D1C0C83ED10510F5C03ED10508F0FC
:100EC000FDC0C83AD10578F4C53AD10508F0A2C0F2
:100ED000C130D10509F4F2C008F4EEC0C430D10528
:100EE00008F0ECC0E9C0CF3BD10508F49BC0C03C82
:100EF000D10508F4E1C0CE01805C91099EC0C11506
:100F000090E2D90758F4C11521E0D20708F0D6C005
:100F1000CD3ED10508F4D0C0D065D0C0C11580E366
:100F2000D80708F08EC0CE019F7087C0C11595E527
:100F3000D90708F043C0C11524E5D20708F0A2C0C4
:100F4000C11582E5D80708F5C11591E5D90708F064
:100F500085C0CE0174E0969587957A95E1F7837008
:100F60009C2F937021E030E002C0220F331F9A952E
:100F7000E2F73C68382BCF70C695C69580E2C89FD3
:100F8000E0011124C22BD32B99C09E01237033277B
:100F90008C2F86958695C115D34508F064C0C1E0B5
:100FA000D0E002C0CC0FDD1F2A95E2F720E2829F3D
:100FB000C0011124C82BD92BDC6880C0C11529E5DC
:100FC000D207A0F4C11588E5D80708F060C0C115A4
:100FD00096E5D90708F070C08C2F0E94F6088F7133
:100FE000C82FD0E0DC2FCC27D06268C0C1152AE51D
:100FF000D20708F451C0CE0190568115904208F0F6
:101000005BC08D2F8F710E94F608DD27D0628F7133
:10101000D82B54C0C55AD0E0CF5BDE4FC881D0E09A
:10102000D0644CC0C85AD0E0CC0FDD1FCD5EDE4F7F
:101030000990D881C02DD46441C00E944207EC01C0
:101040003DC0CE019927D3FF03C0EC01D86C36C058
:10105000EC01D06C33C0DF70D06A30C0DC2FCC27FD
:10106000C16FD06A2BC0C1E0D0E002C0CC0FDD1F41
:101070002A95E2F720E2829FC0011124C82BD92BC8
:10108000DA681CC0DC2FCC27C46FD06A17C0DC2FF5
:10109000CC27C06FD06A12C08C2F8F700E94F608C8
:1010A00094E0D695C7959A95E1F7CF70D0E0DC2F04
:1010B000CC27D069C82B02C0C0E0D0E0CE01DF91C0
:1010C000CF9108958238910569F1B0F4813391058B
:1010D00009F46DC048F48932910509F463C08A327D
:1010E000910509F469C008958533910509F455C047
:1010F00089339105B9F00895833E910569F138F47B
:10110000803E9105B1F0823E910509F10895863E39
:101110009105A9F1873E9105B9F1843E910509F049
:1011200064C023C02091D30220FD4FC021FD4DC0DB
:1011300008958091D30280FD44C08091D40280FF45
:1011400044C08091D30284FD42C083EE4DC08091A3
:10115000D30282FF38C0F5CF8091D30282FD33C025
:101160008091D40280FD31C0ECCF8091D40281FF08
:1011700032C08091D30284FD2AC087EE35C08091B1
:10118000D30283FF26C0F5CF8091D30283FD21C017
:101190008091D40281FD1FC0ECCF8091D30285FDE8
:1011A0001CC01DC08091D30285FD19C016C080915E
:1011B000D30286FD16C017C08091D30286FD13C0EE
:1011C00010C089E311C082EE0FC080EE0DC080E038
:1011D0000BC086EE09C084EE07C089E205C085E336
:1011E00003C08AE201C081E390E008959091D302A8
:1011F00092FF0DC0282F2871283019F4877F846052
:1012000006C0282F2471243011F48B7F886093FF4F
:101210000DC0282F2871283119F4877E846106C0FB
:10122000282F2471243111F48B7E88612091D402FF
:1012300020FF0DC0382F3871383019F4877F816056
:1012400006C0382F3171313011F48E7F886021FF54
:101250000DC0282F2871283119F4877E816106C0BE
:10126000282F2171213111F48E7E886194FD877EB3
:1012700008958091E20180FF0BC06091040185E038
:10128000689FB001112475956795759567952BC07A
:1012900081FF09C06091040185E0689FB0011124BD
:1012A0007595679520C082FF07C06091040185E0B5
:1012B000689FB001112417C09091E1019923D1F0EA
:1012C00060910301961788F72091040185E0289F1B
:1012D00090011124929FA001939F500D112470E062
:1012E000CA010E945F256038710540F461157105DF
:1012F00019F406C065E070E0862F08958FE7089521
:1013000081E008958091E20180FF08C060910101B1
:1013100070E0759567957595679521C081FF06C04A
:101320006091010170E07595679519C082FF04C056
:101330006091010170E010C09091E001992399F053
:10134000609100019617A0F780910101899FC0016B
:10135000112470E00E945F256038710540F461152A
:10136000710519F406C061E070E0862F08958FE7DB
:10137000089581E008958D3E21F40E9439098195F8
:1013800004C08E3E29F40E9439098093E601089535
:101390008F3E21F40E943909819504C0803F29F4D1
:1013A0000E9439098093E5010895893F19F40E944C
:1013B000820905C08A3F31F40E9482098195809399
:1013C000E70108958B3F21F40E948209819504C0B2
:1013D0008C3F29F40E9482098093E80108959FE0E0
:1013E000980F983078F421E030E0A90102C0440F52
:1013F000551F9A95E2F7CA019091E401892B8093D9
:10140000E40108958D3F21F48091E20181600BC0D9
:101410008E3F21F48091E201826005C08F3F29F464
:101420008091E20184608093E20108958D3E39F459
:101430009091E60197FF35C01092E60159C08E3EAB
:1014400029F49091E6011916BCF32BC09091E501A7
:101450008F3E29F497FF25C01092E50149C0803FD7
:1014600019F41916CCF31DC09091E701893F29F4B6
:101470001916BCF41092E7013BC08A3F19F497FF9C
:1014800010C0F8CF8B3F39F49091E80197FF09C065
:101490001092E8012DC08C3F21F49091E8011916BB
:1014A000BCF39FE0980F983080F421E030E0A90170
:1014B00002C0440F551F9A95E2F7CA01809590919A
:1014C000E40189238093E40113C08D3F21F48091CE
:1014D000E2018E7F0BC08E3F21F48091E2018D7F6F
:1014E00005C08F3F29F48091E2018B7F8093E20158
:1014F0008091E501811106C08091E601811102C051
:101500001092E1018091E701811106C08091E8010C
:10151000811102C01092E00108950E94991C20914F
:10152000E501211104C02091E601222321F09093CE
:10153000DF018093DE012091E701211104C0209199
:10154000E801222321F09093DD018093DC0183EEFA
:1015500091E00C94E00EEF92FF920F931F93CF93C4
:10156000DF9300D000D000D0CDB7DEB786E0E3EE49
:10157000F1E0DE01119601900D928A95E1F7E0907D
:10158000E501F090E6010091E7011091E801109269
:10159000E5011092E6011092E7011092E801E110D6
:1015A00003C0FF2009F45DC08091DE019091DF014E
:1015B0000E94B11CAC019091E101992339F0209176
:1015C000050130E02417350758F04BC02091DB01AE
:1015D0008AE0289F900111242417350718F041C094
:1015E0009F3F19F09F5F9093E101EE2061F00E9410
:1015F00039091E1414F09FEF01C091E0989F902DBF
:1016000011249093E501FF2061F00E9439091F1415
:1016100014F09FEF01C091E0989F902D11249093BA
:10162000E6013091E5013323E1F02091E601222328
:10163000C1F045EB3403C0011124992319F09093B4
:10164000E50103C081E08093E50135EB2303C00190
:101650001124992319F09093E60103C081E080934F
:10166000E601011103C0112309F45DC08091DC0182
:101670009091DD010E94B11CAC019091E001992391
:1016800039F02091020130E02417350758F04BC0A3
:101690002091DA018AE0289F900111242417350750
:1016A00018F041C09F3F19F09F5F9093E001002325
:1016B00061F00E948209101614F09FEF01C091E0C2
:1016C000989F902D11249093E701112361F00E94BF
:1016D0008209111614F09FEF01C091E0989F902DA0
:1016E00011249093E8013091E7013323E1F0209138
:1016F000E8012223C1F045EB3403C00111249923F2
:1017000019F09093E70103C081E08093E70135EB86
:101710002303C0011124992319F09093E80103C019
:1017200081E08093E8018091E50181110BC08091F7
:10173000E601811107C08091E701811103C080910A
:10174000E80181110E948D0AEB82FC820D831E83C9
:1017500086E0FE013196A3EEB1E001900D928A95EC
:10176000E1F726960FB6F894DEBF0FBECDBFDF912E
:10177000CF911F910F91FF90EF900895E3EEF1E06C
:1017800086E0DF011D928A95E9F71092E10110923F
:10179000E0011092E2010895CF93DF9397FF0DC00F
:1017A000FB012281222349F0EC010E94F70BCE01BC
:1017B0009F770E944E0C0E94300C81E0DF91CF9108
:1017C00008958CE090E00E948D2590E0A0E0B0E0CC
:1017D0008093C9029093CA02A093CB02B093CC022B
:1017E00008956091C9028CE090E00C949B250E94C2
:1017F000B90E869581708093CE029091C902913086
:1018000029F4882319F089E30E947F110E94E719C7
:101810008093CD020E94FA198091C902813071F043
:1018200048F0823081F08430A1F486EE0E947F116E
:1018300088E10DC082EE0E9456100BC088E193E053
:101840000E94F20506C082EE0E94561087E50E94B3
:101850007F118FE39CE90197F1F700C00000089524
:101860008091C902813039F078F0823069F084309B
:1018700089F488E20DC08CE20E947F118091CE0233
:10188000882341F089E304C082EE0E94001102C067
:101890000E947F118091CD020C94F7190F931F9332
:1018A000CF93DF938C01CCE0D0E0C8010C2E02C0B6
:1018B000969587950A94E2F78F700E9411072497F6
:1018C000CC3F8FEFD80789F7DF91CF911F910F9110
:1018D00008950F931F93CF93DF93EC018B01FB01CE
:1018E0008281882361F00E94E719CE01825E9C45C7
:1018F0008530910520F48093C9020E94F10BB80154
:10190000CE01DF91CF911F910F910C94CC0B0F93CF
:101910001F93CF93DF93C42FD22FFC0182818823A2
:10192000C9F04093EB010E94991C9093EA018093C7
:10193000E90180E28C0F883008F057C0C77081E061
:1019400001C0880FCA95EAF7DF91CF911F910F91DF
:101950000C9488118091EB01481330C08091E9010B
:101960009091EA010E94B11C883C910538F510E283
:101970001D0FCD17B9F080E28C0F883040F4C7708E
:1019800081E001C0880FCA95EAF70E948F111830D4
:1019900028F581E09D2F977001C0880F9A95EAF78E
:1019A0000E948811802F0E947F111830F0F4D770A8
:1019B00081E001C0880FDA95EAF70AC080E28C0F57
:1019C000883098F4C77081E001C0880FCA95EAF7A3
:1019D000DF91CF911F910F910C948F11802FDF9188
:1019E000CF911F910F910C947F11DF91CF911F9197
:1019F0000F9108950F939C01CB01243F4CE53407D0
:101A000031F188F4293DFCE53F07D9F02A3D4CE54A
:101A1000340779F1283D3C45A9F506E221EE41EE77
:101A200068ED7CE52BC0263FFCE53F07E1F0A8F020
:101A3000273F3C4539F507E225EE46EE67EF7CE5AA
:101A40001DC007E225EE45EE69ED7CE517C006E214
:101A500021EE40EE64EF7CE511C007E225EE44EE96
:101A600065EF7CE50BC006E221EE42EE66EF7CE519
:101A700005C008E221E045EE6AED7CE50E94870C96
:101A800080E008C0FC018281882319F01092EB01EC
:101A900001C081E00F910895CF93DF93EC01FB012A
:101AA0008281882309F41FC1C230FCE5DF0708F4F6
:101AB0001BC1C6319CE5D90738F09E012B5F3C4520
:101AC0002930310508F010C10E94BA1A9093D4024F
:101AD0008093D302C031ECE5DE0709F4C3C008F0FF
:101AE00041C0C8308CE5D80709F49AC0F0F4C4307E
:101AF000ECE5DE0709F487C068F4C2308CE5D8074E
:101B000009F477C0C330DC4509F0E3C08091D3020B
:101B1000826076C0C630ECE5DE0709F46EC008F0DE
:101B20007BC08091D30288606BC0CC308CE5D80735
:101B300009F485C068F4CA30ECE5DE0709F474C026
:101B400008F079C00E941B148091D302806858C0AD
:101B5000CE308CE5D80709F476C008F07FC08091BC
:101B6000D3028BC0CC3FECE5DE0709F44FC018F57B
:101B7000C3318CE5D80709F47DC078F4C131ECE5B8
:101B8000DE0709F473C0C231DC4509F0A2C00E942F
:101B90001B148091D3028F7733C0C5318CE5D807F1
:101BA00009F472C008F486C0CB3FDC4509F091C04F
:101BB0008091D4023EC0C115FDE5DF0709F45FC086
:101BC00058F4CE3F9CE5D90709F444C008F43FC05F
:101BD0008091D40282602DC0C230FDE5DF0709F498
:101BE00075C008F45DC0C330DD4509F072C080E007
:101BF0006EC08091D302816003C08091D302806166
:101C00008093D30266C08091D30211C08091D40228
:101C100082608093D4025DC08091D3028062F0CF55
:101C20008091D3028064ECCF8091D302886084607D
:101C3000E7CF8160EECF8091D3028E7FE1CF80919C
:101C4000D3028D7FDDCF8091D302877FD9CF809162
:101C5000D40218C08091D4028D7FDBCF8091D30253
:101C60008F7ECECF8091D3028F7DCACF8091D30259
:101C70008F7BC6CF8091D302877F8B7FC1CF80912E
:101C8000D4028D7F8E7FC5CF8091D30282FB222725
:101C900020F991E0922790FB82F990FB83F9B0CF75
:101CA0008091D402982F909591708E7F892B90FB14
:101CB00081F9AFCF0E941B148091D30287FB2227AA
:101CC00020F991E0922790FB87F99ACF81E00E945A
:101CD000501B8091D3029091D4020E94CB1A0E9493
:101CE0001B1480E001C081E0DF91CF910895CF9374
:101CF000DF9386319C4541F5EB010E94E719982F4F
:101D00008A812091060130910701882379F09A7A1F
:101D100081E009F480E08093EC01911102C069E256
:101D200001C065E3C9010E94EB1B0AC08091EC0170
:101D3000811102C069E201C065E3C9010E94F61B7E
:101D40000E94381A80E001C081E0DF91CF910895B0
:101D50009093F2018093F1010895E091F101F091E7
:101D6000F201309721F00190F081E02D099480E09C
:101D70000895E091F101F091F201309711F480E0C3
:101D800008950190F081E02D09950895E091F10109
:101D9000F091F201309799F020911201222359F02D
:101DA0002091D30227FF07C0DC012C9111962C93C0
:101DB000119725E02C930280F381E02D099408957A
:101DC000E091F101F091F201309739F022E0DC016D
:101DD0002C930480F581E02D099408952091EF0162
:101DE0003091F0012817390771F09093F00180933A
:101DF000EF01E091F101F091F201309721F00680BE
:101E0000F781E02D099408952091ED013091EE01C4
:101E10002817390771F09093EE018093ED01E0915E
:101E2000F101F091F201309721F00084F185E02D6D
:101E3000099408950E94A51C609304027093050202
:101E40008093060290930702609300027093010250
:101E50008093020290930302089585B7806885BF3E
:101E600085B7806885BF089581E008950C94340F8C
:101E700008950C94380F0C94380F0C943B0F0C946D
:101E8000380F0C943F0F0C94380F0E942D0F8BE9E4
:101E90009AE10E94F71C0E94430F0C94410F0E948C
:101EA000901C0E9441030E94481DE3EDF2E08081F6
:101EB000806880838091D3029091D4020E94CB1AD3
:101EC0000C943D0F6F927F928F929F92AF92BF9230
:101ED000CF92DF92EF92FF920F931F93CF93DF93F6
:101EE000CDB7DEB72A970FB6F894DEBF0FBECDBFD1
:101EF0000E94390F0E94380F0E94B00381110E9486
:101F00001A0F34EF832E31E0932E00E010E0C02E44
:101F1000802F0E9465045C01F401619071904F0173
:101F20006826792661147104B1F40F5F1F4F0630E3
:101F3000110569F78FEF89838A831B820E94991CA0
:101F40008160782F9D838C8349815A816B818D813B
:101F50000E941C103AC08091A50281FD0E946E046F
:101F6000D12CEE24E394F12CC3018E219F21892BE7
:101F700029F10E94360F8823A9F0DE82CF82AE209D
:101F8000BF2081E0AB2809F480E088870E94991C7B
:101F90008160782F9A8789874E815F8168858A85DD
:101FA0000E941C10000F111FF801EC50FE4F8081A1
:101FB0009181E826F926F182E08207C0D394EE0CE5
:101FC000FF1CFEE0DF12D0CFB0CF0E94AB0A0E9410
:101FD000AD0E9091F3018917D1F00E94AD0E809360
:101FE000F3012A960FB6F894DEBF0FBECDBFDF9186
:101FF000CF911F910F91FF90EF90DF90CF90BF9006
:10200000AF909F908F907F906F900C9422072A96AC
:102010000FB6F894DEBF0FBECDBFDF91CF911F91F9
:102020000F91FF90EF90DF90CF90BF90AF909F9077
:102030008F907F906F900895DF92EF92FF920F93B1
:102040001F93CF93DF93CDB7DEB72B970FB6F894DE
:10205000DEBF0FBECDBFF42E052F162FE72ED82ED4
:1020600061110E940A1AFE01319686E0DF011D927D
:102070008A95E9F77E2D4F2D502F612F8D2D9E8152
:102080000E94D4162B960FB6F894DEBF0FBECDBFBC
:10209000DF91CF911F910F91FF90EF90DF90089506
:1020A000FC01808191810E94A8190895CF93882313
:1020B00009F4A4C0C82F8238C1F40E94AD0E81FD7E
:1020C0009DC069E380910601909107010E94EB1B7E
:1020D0000E94381A2FEF81EE94E02150804090400A
:1020E000E1F700C0000069E319C0833801F50E94E0
:1020F000AD0E80FD83C063E58091060190910701DC
:102100000E94EB1B0E94381A2FEF81EE94E02150C1
:1021100080409040E1F700C0000063E58091060137
:10212000909107010E94F61BCF910C94381A8438C5
:10213000C1F40E94AD0E82FD61C067E4809106018A
:10214000909107010E94EB1B0E94381A2FEF81EE3D
:1021500094E0215080409040E1F700C0000067E427
:10216000DDCF8CEF8C0F813AD0F46C2F809106017B
:10217000909107010E946B1B882349F06C2F80917E
:102180000601909107010E94F61B0E94381A6C2FDD
:1021900080910601909107010E94EB1BC5CF80E260
:1021A0008C0F883048F4C77081E001C0880FCA9551
:1021B000EAF70E94EA19B8CFEBE5EC0FE33040F400
:1021C000F0E0EE58FE4F808190E0CF910C94EE0E3F
:1021D000E8E5EC0FE73150F4F0E0EE0FFF1FEC5BA9
:1021E000FE4F80819181CF910C94040FCD3E30F051
:1021F0008C2F0E94BB09CF910C948D0ACF9108952A
:10220000882309F464C0823879F40E94AD0E81FFFE
:102210005EC069E380910601909107010E94EB1B6B
:102220000E94381A69E310C08338B1F40E94AD0EE1
:1022300080FF4DC063E580910601909107010E94E7
:10224000EB1B0E94381A63E580910601909107010B
:102250000E94F61B0C94381A843879F40E94AD0E53
:1022600082FF35C067E480910601909107010E94CA
:10227000EB1B0E94381A67E4E7CF9CEF980F913A66
:1022800010F4682FE1CF90E2980F983050F48770E7
:1022900091E001C0990F8A95EAF7892F0E94F01901
:1022A000D9CF9BE5980F933020F480E090E00C9418
:1022B000EE0E98E5980F973120F480E090E00C94B2
:1022C000040F8D3E20F00E94160A0C948D0A08958A
:1022D0001F93CF93DF93182FEB010E945610209786
:1022E00041F08FE99FE00197F1F700C000002197CE
:1022F000F6CF812FDF91CF911F910C94001189337C
:1023000019F060E070E002C060E570E00C946811C4
:10231000882321F00E94EA190C94381A0895882322
:1023200021F00E94F0190C94381A0895CF92DF9290
:10233000EF92FF920F931F93CF93DF937C01062FB1
:10234000C72FFC01D281158112951F700E94E019E0
:10235000882399F0DD2389F08C2F807F803421F051
:1023600080E2800F883048F082E00E94821A0E944A
:10237000E01991E0D82ED92601C0D12CCC2EC294E0
:102380008FE0C8228C2D90E0FC01EA5AFF4F0C949C
:1023900073258C2F807FCF70882311F0C295C07F6A
:1023A000DD2399F0CC2309F485C180E2800F8830C9
:1023B00010F0011104C08C2F0E94EA1903C08C2F69
:1023C0000E94FD190E94381A75C1802F0E940011C9
:1023D000CC2309F494C180E2800F883010F0011101
:1023E00004C08C2F0E94F01903C08C2F0E94031A86
:1023F0000E94381A84C18C2F807FCF70803211F0F8
:10240000C295C07F002319F00130C9F024C0DD233C
:1024100071F0112341F0113031F40E941D1A8C2B00
:102420000E94251A6CC10E941D1A8C2B0EC011230C
:1024300019F0113009F463C10E942E1A1EC0DD2369
:1024400039F0123008F05BC18C2F0E94881157C1FF
:10245000111155C112C0DD2319F01123A9F32AC1AE
:10246000112359F0093309F036C1FFEF27EE83E05D
:10247000F15020408040E1F72CC18C2F0E948F1139
:102480003EC18C2F86958695837019F0813061F05E
:1024900036C1DD2321F0802F9C2F937002C080E095
:1024A00090E00E94EE0E33C1DD2321F0802F9C2F9F
:1024B000937002C080E090E00E94040F28C1802F3A
:1024C000DD2319F00E94BB0902C00E94160A0E9477
:1024D0008D0A1DC18C2F837009F045C0D11113C125
:1024E000402F429546954770440F440F602F6F7000
:1024F000862F90E0A0E0B0E0042E04C0880F991F62
:10250000AA1FBB1F0A94D2F704FF10C00FE010E00F
:1025100020E030E004C0000F111F221F331F4A9536
:10252000D2F7009510952095309503C000E010E09B
:102530009801C695C695C370BC01CD01602B712B67
:10254000822B932BC23049F058F4C13019F00E940D
:102550002518D9C00E941318D6C00E943718D3C0BE
:102560000E941118D0C0DD2319F08C2F817001C09A
:102570008695882309F4C7C0402F42954695477039
:10258000440F440F602F6F70862F90E0A0E0B0E002
:10259000042E04C0880F991FAA1FBB1F0A94D2F7EC
:1025A00004FF10C00FE010E020E030E004C0000F96
:1025B000111F221F331F4A95D2F7009510952095C1
:1025C000309503C000E010E09801C695C695C37031
:1025D000BC01CD01602B712B822B932BC23049F0B3
:1025E00058F4C13019F00E94EA188DC00E94D81822
:1025F0008AC00E94FC1887C00E944B1884C0CF700C
:10260000DD2339F08C2F0E947118802F0E948811D1
:102610007AC0802F0E948F118C2F0E94921873C055
:10262000023FF9F028F4003F41F0013F99F03EC02D
:10263000033FF1F0043F31F139C0DD2339F01111CE
:102640005EC08C2F8F710E94B71859C0123008F0ED
:1026500056C0F7CFDD2339F08C2F8F710E9471188F
:102660004EC0DD23C9F38C2F8F710E94921847C092
:10267000DD2329F08C2F8F710E945C1840C00E94CE
:1026800057183DC0DD2349F0CF718C2F0E9471187F
:1026900063E08C2F0E946D1A32C081E00E94821A82
:1026A000123068F182E00E94821A29C0DD2331F0E5
:1026B000112391F2802F0E94561021C0112399F20C
:1026C000093349F49FEFE7EEF3E09150E040F0402A
:1026D000E1F700C00000802F0E94001110C04C2FB5
:1026E0004F70602FC7010E942B070E9482170FC0F6
:1026F0004C2F4F70602FC7010E942E0708C088EF33
:102700008C0D843020F40E94AD0E0E942207DD2043
:10271000C9F00E94DC1980FD15C0F70112820E94E9
:10272000D6190E947118C7010E94C3130E94D619BE
:10273000DF91CF911F910F91FF90EF90DF90CF909D
:102740000C949218DF91CF911F910F91FF90EF9011
:10275000DF90CF9008950F931F93CF93DF93EC01F9
:10276000688179818A810E94B3198C010E940E19B7
:102770000E94FF17B801CE010E949611DF91CF9100
:102780001F910F910895CF93DF93EC019881898178
:102790002B813C81232B31F08F3F31F481E09F3F2F
:1027A00019F403C081E001C080E080FD19C0CE01B2
:1027B0000E94680681110CC00E94E019882381F0F4
:1027C0008A81882369F082E0DF91CF910C94821A8C
:1027D000CE010E94AB13CE01DF91CF910C94410644
:1027E000DF91CF910895882321F00E94FD190C9468
:1027F000381A0895882321F00E94031A0C94381A7D
:10280000089580E090E00E94EE0E80E090E00E944B
:10281000040F0E940A1A0E941A1A0E94381A0E9473
:10282000BE0B0C948D0A80910601909107010E94C5
:10283000011C0C9401140E94FA190C941314E92F32
:10284000E295EF704E2F50E0FA013297EE30F1052D
:10285000B0F4EA59FF4F0C947325803F91F018F4BF
:10286000883E68F40EC0843F51F40BC0883E48F0A7
:10287000813F29F406C093FB882780F9089580E002
:10288000089581E008950E94A8190E941F140895D8
:10289000CF93DF9300D000D01F92CDB7DEB70F905B
:1028A0000F900F900F900F90DF91CF910895CF93DD
:1028B000DF9300D000D000D0CDB7DEB726960FB69C
:1028C000F894DEBF0FBECDBFDF91CF9108951F9367
:1028D000CF93DF93C091090216E080910A02C817D6
:1028E00099F0D0E01C9FF0011D9FF00D1124E55FD1
:1028F000FD4F4081518162817381848195810E9465
:1029000057142196C770E9CFDF91CF911F91089599
:1029100040913B0250913C0260913D0270913E0219
:1029200080913F02909140020C9457140F931F9393
:10293000CF93DF938091400282958F7009F05DC044
:1029400080913D02882309F458C0809109021091BA
:102950000A0260913B0270913C02C0913E02D0910C
:102960003F0291E06F3F09F090E0292F06E08117C8
:1029700009F443C0209721F07F3F21F030E003C0ED
:1029800031E001C0322F90E030FD34C0089FF001EB
:10299000099FF00D1124DF01A55FBD4F11963C91F9
:1029A0001197371327C03C91361324C012963C91DF
:1029B000129731111FC013964D915C9114974C1BC7
:1029C0005D0B483C5105B0F4809140028F708061EE
:1029D00080934002E05FFD4F80818F708061808333
:1029E0008BE392E00E94C313DF91CF911F910F916F
:1029F0000C94671401968770BACFDF91CF911F9125
:102A00000F9108959F92AF92BF92CF92DF92EF9273
:102A1000FF920F931F93CF93DF93CDB7DEB76197EC
:102A20000FB6F894DEBF0FBECDBF8C0185E0F80174
:102A3000DE011D9601900D928A95E1F7F801408123
:102A40005181E28090913B0260913C0220913E02D4
:102A500030913F022115310531F06F3F31F481E0B3
:102A60009F3F19F403C081E001C080E0F82FF170AE
:102A70009F2E80FD46C1F801A380B4808BE3C82E51
:102A800082E0D82EF0903D02F501E21BF30BFF200F
:102A900009F4DFC080914002E83CF10508F09BC0DA
:102AA000282F207F09F052C0561313C0491311C0BC
:102AB000FE2CE1100EC08F708061809340020E9456
:102AC0008814C6010E94C31380914002F8018583D7
:102AD00058C1AB2831F05F3F31F481E04F3F19F42A
:102AE00003C081E001C080E080FD03C081E08E254D
:102AF00002C080E090E0F82FF170FF2E80FF1CC034
:102B00008091090220910A0236E0821709F417C168
:102B100090E0389FF001399FF00D1124E55FFD4FE3
:102B20006181561306C06081461303C06281E612BC
:102B300003C001968770E9CFFE2CEE2009F421C175
:102B4000809140028160809340025AC0561306C0B3
:102B5000491304C0E11002C0F8019FC04D875E8791
:102B60008D859E850E944314882379F1EE2069F1BA
:102B700020914002822F82958F7090E0029774F02E
:102B800080913B0290913C0298878F831986BB8687
:102B9000AA862C87CE0107960E94C31386E0F8010F
:102BA000ABE3B2E001900D928A95E1F70E94961492
:102BB0000E9488140DC0561729F14D875E878D85B8
:102BC0009E850E94431481112CC0C8010E94C3132A
:102BD000FF24F394D6C0282F207F69F77A2DB98A75
:102BE000A88A6E2D89890E9448148BE392E00E9486
:102BF000C31386E0F60111928A95E9F70E948814C2
:102C0000F12CBFC04913D9CFE110D7CFF80185838C
:102C1000C8010E94C31386E0F60111928A95E9F774
:102C2000B0C0EE2091F220914002822F82958F70E9
:102C300090E002970CF4B2CF80913B0290913C025D
:102C40009A8389831B82BD82AC822E83CE0101963A
:102C5000A3CFE83CF10508F047C0FE2CEE2009F4B4
:102C6000B4CF561330C049132EC02091400220FD2E
:102C700021C0822F82958F70482F50E04115510559
:102C8000C9F0F80125834F30510541F08F5F982F2F
:102C90009295907F822F8F70892B8583C8010E9427
:102CA000C31386E0F801ABE3B2E001900D928A9580
:102CB000E1F742C086E0F801ABE3B2E001900D928B
:102CC0008A95E1F75EC04D875E878D859E850E945F
:102CD0004314811163CF8091400281608093400250
:102CE000C8010E94C3134DC07A2DB98AA88A6E2DDF
:102CF00089890E94481486E0F60111928A95E9F7C5
:102D00001BC0EE2009F461CF4D875E878D859E85BF
:102D10000E944314F82E882309F457CF86E0F80167
:102D2000ABE3B2E001900D928A95E1F78BE392E07C
:102D30000E9450100E9496140E94881422C04D8751
:102D40005E878D859E850E94A819292F22952F7058
:102D5000223028F49F7039F0811105C00BC0243057
:102D600028F49F7049F4805E883020F0C8010E94EA
:102D7000C3139F2CF92C05C0F8019581907F99F71A
:102D8000F9CF8F2D61960FB6F894DEBF0FBECDBF81
:102D9000DF91CF911F910F91FF90EF90DF90CF9037
:102DA000BF90AF909F9008951F93CF93DF93CDB7BF
:102DB000DEB72C970FB6F894DEBF0FBECDBF4F83A2
:102DC000588769877A878B879C87CE0107960E94F0
:102DD00002158823D1F09F8188852A853B85232B86
:102DE00031F08F3F31F481E09F3F19F403C081E05F
:102DF00001C080E080FD47C04F81588569857A8594
:102E00008B859C850E9457143EC086E0FE01379654
:102E1000DE01119601900D928A95E1F7FF81E88518
:102E20006A857B856115710531F0EF3F31F481E0F2
:102E3000FF3F19F403C081E001C080E080FD23C0A2
:102E400020910A0230E0C9010196877099274091CC
:102E5000090250E084179507F1F1F983EA837D8335
:102E60006C8396E0929FD001939FB00D1124A55FD3
:102E7000BD4FFE01319601900D929A95E1F7809336
:102E80000A020E94671416E08091090290910A02DA
:102E9000891771F1189FC0011124855F9D4F0E9411
:102EA0000215882329F1E09109021E9FF0011124E7
:102EB000E55FFD4F408151816281738184819581FD
:102EC0000E9457148091090290E00196877099271B
:102ED00080930902D9CF0E941B1410920A0210920B
:102EE0000902EBE3F2E086E0DF011D928A95E9F743
:102EF0002C960FB6F894DEBF0FBECDBFDF91CF91F9
:102F00001F910895EF92FF920F931F93CF93DF933A
:102F10008C01892B09F46CC0F12CEE24E394E801B8
:102F20002196F8018491843740F4843008F051C030
:102F3000813081F0823019F15BC0853709F444C0DB
:102F4000A8F19CE7980F903708F052C08F770E9445
:102F5000001141C00E5F1F4FFE01849190E2980F57
:102F6000983050F48770FE2D01C0FF0F8A95EAF764
:102F70008F2F0E940D1A14C00E9456102DC00E5F94
:102F80001F4FFE01849190E2980F983060F4877093
:102F9000FE2D01C0FF0F8A95EAF78F2F0E94131AAA
:102FA0000E94381A19C00E94001116C00E5F1F4FF0
:102FB000FE01C491CC2381F08FE99FE00197F1F7E6
:102FC00000C00000C150F6CF0E5F1F4FFE01F4900D
:102FD00003C00E9456108E018F2D882309F49FCFC5
:102FE000EFE9FFE03197F1F700C000008150F5CF25
:102FF000DF91CF911F910F91FF90EF900895089569
:1030000008950C9400180C9401180E940318609302
:103010007C0270937D0280937E0290937F020C94D9
:1030200001140C9405180F931F9300917C021091CA
:103030007D0220917E0230917F02602B712B822BCA
:10304000932B1F910F910C9405180F931F930091D0
:103050007C0210917D0220917E0230917F026023DC
:103060007123822393231F910F910C9405180F93C2
:103070001F9300917C0210917D0220917E0230917D
:103080007F0260277127822793271F910F910C944D
:1030900005180C9400180E944918609378027093E8
:1030A000790280937A0290937B020C94011460E081
:1030B00070E0CB010C944B180F931F9341E050E04C
:1030C00060E070E08A019B0104C0000F111F221F05
:1030D000331F8A95D2F7C901B8011F910F910C9443
:1030E0004B180F931F9341E050E060E070E004C084
:1030F000440F551F661F771F8A95D2F7809178027B
:1031000090917902A0917A02B0917B028A019B0191
:10311000082B192B2A2B3B2BC901B8011F910F91AA
:103120000C944B180F931F9341E050E060E070E067
:1031300004C0440F551F661F771F8A95D2F740952C
:103140005095609570958091780290917902A09148
:103150007A02B0917B028A019B01082319232A235A
:103160003B23C901B8011F910F910C944B180F9389
:103170001F9341E050E060E070E004C0440F551F31
:10318000661F771F8A95D2F7809178029091790215
:10319000A0917A02B0917B028A019B01082719272E
:1031A0002A273B27C901B8011F910F910C944B1896
:1031B0000F931F93009178021091790220917A0267
:1031C00030917B02602B712B822B932B1F910F91DF
:1031D0000C944B180F931F93009178021091790271
:1031E00020917A0230917B02602371238223932302
:1031F0001F910F910C944B180F931F93009178021D
:103200001091790220917A0230917B026027712718
:10321000822793271F910F910C944B1808952EE04D
:10322000929F800D1124E82FE695E695E69587702C
:1032300051E001C0550F8A95EAF785E0E89FF0015B
:103240001124EF5BFD4F20E030E070E04081CB01C6
:10325000022E02C0969587950A94E2F781708195B7
:1032600084278523842781932F5F3F4F25303105A5
:1032700069F708952EE0929F800D1124682F6695BE
:1032800066956695982F977085E0689FB001112428
:1032900040E050E080E0FB01E40FF51FEF5BFD4FE5
:1032A000208130E0092E02C0369527950A94E2F776
:1032B00021703327042E01C0220F0A94EAF7822BD3
:1032C0004F5F5F4F4530510531F70895BF92CF9260
:1032D000DF92EF92FF920F931F93CF93DF938C01B6
:1032E000C0907802D0907902E0907A02F0907B0250
:1032F00080917C0290917D02A0917E02B0917F022C
:10330000C82AD92AEA2AFB2ACFE1D0E0D701C60190
:103310000C2E04C0B695A795979587950A94D2F779
:1033200080FD04C0219790F7B12C07C0BC2EB801D6
:103330008C2F0E944A070197A9F38B2DDF91CF9123
:103340001F910F91FF90EF90DF90CF90BF90089565
:10335000CF93DF93EC010E946619BE010E944A07D9
:10336000DF91CF9108951F93CF93DF93EB0190915D
:103370000802992321F0CB010E94A81913C08823C9
:1033800049F0CB010E946619182F682FCE010E94C8
:103390000F1904C0CB010E943A19182FBE01812FCA
:1033A0000E944A07DF91CF911F910895809180027A
:1033B00085958595859508958091800287700895FB
:1033C00090918002977081E009F480E008958091E7
:1033D000A40208959091A402892B8093A4020895D9
:1033E00080959091A40289238093A40208958093EC
:1033F000A40208951092A40208959091A302892B2B
:103400008093A302089580959091A30289238093CD
:10341000A30208951092A30208959091A202892B0D
:103420008093A202089580959091A20289238093AF
:10343000A20208951092A202089580918102089537
:1034400008950C94201A0C94211A909181029817D7
:1034500021F0809381020C94231A089580918102B7
:10346000882329F01092810280E00C94231A089599
:10347000E0910601F09107018091A4028083E09120
:103480000601F091070190818091A302892B80832E
:10349000E0910601F091070190818091A202892BB1
:1034A000808380918102882381F0E0910601F09170
:1034B00007019081892B80838091060190910701FB
:1034C0000E94551B81110E942E1A80910601909135
:1034D00007010C94C60E0C94201A98E0899F900165
:1034E0001124262B209380020E9471188091800263
:1034F0008595859585950C946B1A1092800280E0D5
:103500000C946B1A20918002809582238093800214
:10351000982F977079F430E0482F082E000C550B47
:103520002417350739F08595859585950E94921861
:103530000C947D1A089580E0089580E090E00E9448
:10354000952521E08B3E9E4F09F020E0822F0895C3
:1035500082E090E00C948D25682F82E090E00C943E
:103560009B2583E090E00C948D25682F83E090E00C
:103570000C949B25CF9384E090E00E948D25C82F6A
:1035800081E290E00E948D252C2F30E0A901582B7C
:10359000CA01CF910895CF93C92F682F84E090E09E
:1035A0000E949B256C2F81E290E0CF910C949B258B
:1035B000AB01BC018FE090E00C94AD25AB01BC01E8
:1035C00083E190E00C94AD2560E070E0CB010C94B9
:1035D000DE1A60E070E0CB010E94D81A0C94E41A65
:1035E0006BEE7EEF80E090E00E94B92560E082E023
:1035F00090E00E949B2560E083E090E00E949B2584
:1036000010927C0210927D0210927E0210927F0234
:1036100060E084E090E00E949B2560E081E290E021
:103620000E949B2560E085E090E00E949B2560E081
:1036300086E090E00E949B256FEF87E090E00E947B
:103640009B2540E050E0BA0188E090E00E94AD2563
:1036500060E08DE090E00E949B2540E050E0BA01E0
:1036600088E190E00E94AD2560E087E190E00E9453
:103670009B2540E050E0BA018CE190E00E94AD252E
:1036800060E080E290E00E949B2540E050E0BA01BB
:1036900088E190E00E94AD250C94E91A0C94F01A90
:1036A000682F8EE090E00C949B25FC01329680916F
:1036B0001201882331F08091D30287FF02C09EE17E
:1036C00001C096E080E0915028F021912223D9F3A7
:1036D0008F5FF9CF0895662351F1209112012223C3
:1036E000E9F02091D30227FF19C0462F4695469551
:1036F00046954E31E0F4677021E030E002C0220FC1
:10370000331F6A95E2F7FC01E40FF11D828190E01E
:103710002823392381E0232B69F409C0FC01329668
:1037200008962191621729F0E817F907D1F780E090
:10373000089581E008959C01FC0132969FEF80E09E
:103740004191461789F09F3F19F4411101C0982F0C
:103750008F5F8630A9F79F3F39F0F901E90FF11D1E
:1037600097FDFA956283089508959C012A5F3F4F63
:10377000FC014281461301C0128201968217930711
:10378000B9F70895262F2695269526952E3168F4AB
:10379000FC01E20FF11D677021E030E001C0220F53
:1037A0006A95EAF78281282B22830895262F269591
:1037B000269526952E3170F4FC01E20FF11D6770FD
:1037C00021E030E001C0220F6A95EAF7209582815E
:1037D00028232283089520911201222329F0209189
:1037E000D30227FD0C94C21B0C949B1B2091120149
:1037F000222329F02091D30227FD0C94D61B0C9490
:10380000B51B20911201FC013296222331F08091E8
:10381000D30287FF02C08EE101C086E0DF011D9266
:103820008A95E9F7089508950C94131CCF930E948C
:1038300057030E94B0030E94141CC0E08C2F0E940A
:103840006504892B29F4CF5FC630C1F780E001C041
:1038500081E0CF9108950C94131C0C942B1C809143
:10386000D902843049F10E942D1C80E00E94220779
:103870001092A60220E488E190E00FB6F894A89593
:10388000809360000FBE2093600083B7817F8460C7
:1038900083BF83B7816083BF7894889583B78E7F19
:1038A00083BF0FB6F894A8958091600088618093DB
:1038B0006000109260000FBE08950C94131C0E94CB
:1038C0001B140E94AD0E0E9422070C945D1C1F92D7
:1038D0000F920FB60F9211248F939F93AF93BF93C4
:1038E0008091A602811113C08091CF029091D002E5
:1038F000A091D102B091D2024196A11DB11D809339
:10390000CF029093D002A093D102B093D202BF9184
:10391000AF919F918F910F900FBE0F901F901895B0
:1039200082E084BD93E095BD9AEF97BD80936E00D1
:1039300008952FB7F8948091CF029091D002A09172
:10394000D102B091D2022FBF08952FB7F8946091A1
:10395000CF027091D0028091D1029091D2022FBFFC
:1039600008959C014FB7F8948091CF029091D002B6
:10397000A091D102B091D2024FBF821B930B089548
:1039800078941F920F920FB60F9211248F939F93EA
:10399000AF93BF938091CF029091D002A091D102BA
:1039A000B091D2020196A11DB11D8093CF029093D8
:1039B000D002A093D102B093D202BF91AF919F9158
:1039C0008F910F900FBE0F901F90189587E797E784
:1039D00090930108809300089AE088E10FB6F8946C
:1039E000A895809360000FBE90936000FFCF9093E6
:1039F0007701809376010895AF92BF92CF92DF92C4
:103A0000EF92FF920F931F93CF93C0E0CC24C39407
:103A1000D12CE82EF12C8C2F0E9465045C0100E073
:103A200010E0C601002E02C0880F991F0A94E2F729
:103A30008A219B21892B31F40F5F1F4F0E30110516
:103A400081F70AC0602F7C2F80E00E942F07E816C4
:103A5000F90691F781E004C0CF5FC630E1F680E05F
:103A6000CF911F910F91FF90EF90DF90CF90BF907B
:103A7000AF900895CF93C82F8CE20E94FC1C88233E
:103A800021F08C2FCF910C94FC1C80E0CF910895F5
:103A9000CF930E949D1A811102C00E944E1BC5E661
:103AA000C15049F00E94B0038FE39CE90197F1F700
:103AB00000C00000F5CF89E20E943A1D81112AC1A1
:103AC0008AE20E943A1D81110E944E1B85E00E94ED
:103AD0003A1D81110E94E61C0E94A81A8093A5023B
:103AE00087E00E943A1D8823A9F18BE10E943A1DCC
:103AF000882351F08091A50281FB222720F991E0D3
:103B0000922790FB81F90EC08EE00E943A1D882317
:103B100061F08091A50282FB222720F991E0922793
:103B200090FB82F98093A50215C080E10E943A1DA6
:103B30009091A502882341F093FB222720F981E090
:103B4000822780FB93F904C0892F809580FB90F930
:103B50009093A5028091A5020E94AC1A0E94BA1A05
:103B60009093D4028093D30280EE0E943A1D882362
:103B700041F08091D302982F909590FB80F980932B
:103B8000D30289E30E943A1D882359F08091D30221
:103B900081FB222720F991E0922790FB81F9809305
:103BA000D30282EE0E943A1D882359F08091D302FD
:103BB00082FB222720F991E0922790FB82F98093E3
:103BC000D30286EE0E943A1D882359F08091D302D9
:103BD00083FB222720F991E0922790FB83F98093C1
:103BE000D30283EE0E943A1D882359F08091D302BC
:103BF00084FB222720F991E0922790FB84F980939F
:103C0000D30285E30E943A1D882359F08091D302A4
:103C100085FB222720F991E0922790FB85F980937C
:103C2000D30281E30E943A1D882359F08091D30288
:103C300086FB222720F991E0922790FB86F980935A
:103C4000D30281E10E943A1D882359F08091D3026A
:103C500087FB222720F991E0922790FB87F9809338
:103C6000D3028091D3029091D4020E94CB1A87E2B2
:103C70000E943A1DC82F8EE10E943A1D8111C26038
:103C80008FE10E943A1D8111C46080E20E943A1DBA
:103C90008111C86081E20E943A1D8111C06182E2F7
:103CA0000E943A1D8111C06283E20E943A1D811177
:103CB000C06484E20E943A1D882311F0C06802C0EB
:103CC000CC2329F08C2F0E94B51A6C2F03C00E94C0
:103CD000B11A682F70E080E090E00E9411186091A6
:103CE00078027091790280917A0290917B020E9411
:103CF00049188FE00E943A1D882319F081E00E9444
:103D0000501B85E10E943A1D882321F080E0CF916D
:103D10000C94501BCF9108958091C7020895CF93C2
:103D2000DF9300D01F92CDB7DEB79091D9029430C7
:103D300019F589837B836A8382E08093E9008FEFA2
:103D40009091E800815095FD06C095ED9A95F1F7A8
:103D500000008111F5CF8091E80085FF0DC040E0A3
:103D600050E063E070E0CE0101960E94C120809196
:103D7000E8008E778093E8000F900F900F90DF910E
:103D8000CF910895BC0184E00C948F1EBC0183E0A8
:103D90000C948F1E22E02093E9002FEF3091E80071
:103DA000215035FD06C035ED3A95F1F7000021119F
:103DB000F5CF2091E80025FF0BC040E050E066E021
:103DC00070E00E94C1208091E8008E778093E80027
:103DD0000895CF93DF9320911201222339F020918F
:103DE000D30227FF03C060E222E002C068E021E0C6
:103DF0002093E9002FEF3091E800215035FD06C0F7
:103E000035ED3A95F1F700002111F5CF2091E8004A
:103E100025FF1DC0EC0180911201811105C040E019
:103E200050E068E070E003C070E040E050E0CE0198
:103E30000E94C1208091E8008E778093E80080E2A4
:103E4000FE01A7EAB2E001900D928A95E1F7DF91B9
:103E5000CF9108958091D802811109C00E94522209
:103E60000E94AF228091E20084608093E200089576
:103E70001092D802089508950895089542E061ECE3
:103E800081E00E94CB2142E261EC82E00C94CB21E4
:103E90008091DB02833009F460C030F4813071F02E
:103EA000823009F499C008958A3009F485C08B30B6
:103EB00009F46BC0893009F0A7C020C08091DA02F4
:103EC000813A09F0A1C08091E800877F8093E800E3
:103ED0008091DE029091DF02892B21F460E287EA73
:103EE00092E003C060E080E090E070E00E940C216E
:103EF0008091E8008B778093E80008958091DA0242
:103F0000813209F081C08091DE029091DF02029738
:103F100008F07AC08091E800877F8093E800809164
:103F2000E80082FD05C08091D9028111F8CF6CC0F4
:103F30002091F3008091F20090E0922B029729F4F7
:103F40008091F1008B7F813021F48091F10080938A
:103F5000C7028091E8008B7753C08091DA02813AE2
:103F600009F052C08091DE029091DF02892B09F0A6
:103F70004BC08091E800877F8093E8008091E80043
:103F800080FFFCCF8091120136C08091DA0281322D
:103F9000D9F58091DE029091DF02892BA9F58091FD
:103FA000E800877F8093E8000E9400228091DC0275
:103FB000809312010C941B148091DA02813221F556
:103FC0008091E800877F8093E8000E940022809122
:103FD000DD028093C80208958091DA02813AA1F44B
:103FE0008091E800877F8093E8008091E80080FF5F
:103FF000FCCF8091C8028093F1008091E8008E7719
:104000008093E8000C940022089584B7877F84BFD2
:104010000FB6F894A8958091600088618093600045
:10402000109260000FBE90E080E80FB6F894809385
:104030006100909361000FBE0E94450F0E945222C2
:104040000E94AF228091E20084608093E200789425
:104050000E9444250E944F0F88E091E00E94A80E24
:104060008091D9028530A9F48091D902853079F404
:104070000E942F1C8091D7028823B1F30E94161C46
:10408000882391F30E94AB200E941B14EDCF0E9465
:104090005F1C0E94620F0E94390F0E94380FE0CF10
:1040A0000C945220292F332723303105C9F060F4B6
:1040B0002130310581F02230310509F044C08BE315
:1040C00090E020ED33E043C021323105E1F02232AF
:1040D000310549F138C082E190E02BE034E037C08F
:1040E00099278130910549F028F0029761F5E4EABB
:1040F000F3E005C0ECECF3E002C0E8EBF3E0849100
:1041000090E09F0124C06115710541F06130710597
:10411000D1F489E090E02BEF33E019C089E090E022
:1041200022EE33E014C06115710541F06130710574
:1041300051F486EB90E02DE134E009C080E490E09A
:1041400023ED34E004C080E090E020E030E0FA01AC
:1041500031832083089580E189BD82E189BD09B45E
:1041600000FEFDCF8091D8008F7D8093D800809194
:10417000E00082608093E0008091E00081FDFCCF50
:104180000895CF92DF92EF92FF920F931F93CF93F8
:10419000DF93EC018B017A010E941F22811133C051
:1041A000E114F10439F0F70180819181081B190BAA
:1041B000C80FD91FC12CD12C0115110519F18091FF
:1041C000E80085FD16C08091E8008E778093E800B6
:1041D000E114F10449F0F70180819181C80ED91EE4
:1041E000D182C08285E00FC00E941F22882321F364
:1041F0000AC089918093F10001501109FFEFCF1A95
:10420000DF0ADACF80E0DF91CF911F910F91FF900D
:10421000EF90DF90CF9008952091E0023091E1027D
:104220002617370748F06115710539F42091E80029
:104230002E772093E80001C0B901FC0120E0611550
:10424000710579F18091D9028823F1F18530F1F17E
:104250008091E80083FD3CC08091E80082FD2EC083
:104260008091E80080FFEBCF2091F3008091F20075
:1042700090E0922B6115710551F08830910538F46A
:1042800021912093F100615071090196F3CF21E053
:10429000089709F020E08091E8008E778093E8008D
:1042A000CECF2111CFCF0AC08091D902882361F0EF
:1042B000853061F08091E80083FD0AC08091E800BC
:1042C00082FFF2CF80E0089582E0089583E00895B0
:1042D00081E008952091E0023091E102261737072E
:1042E00048F06115710539F42091E8002E7720938C
:1042F000E80001C0B901FC0120E06115710591F1F0
:104300008091D902882309F440C0853009F43FC068
:104310008091E80083FD3DC08091E80082FD2FC0C0
:104320008091E80080FFE9CF2091F3008091F200B6
:1043300090E0922B6115710559F08830910540F499
:1043400024912093F1003196615071090196F2CFCA
:1043500021E0089709F020E08091E8008E778093B3
:10436000E800CBCF2111CCCF0AC08091D90288239D
:1043700061F0853061F08091E80083FD0AC0809192
:10438000E80082FFF2CF80E0089582E0089583E0A4
:10439000089581E00895982F973068F59093E9008B
:1043A000981739F07091EC002091ED005091F000D9
:1043B00003C0242F762F50E021FD02C09F5FECCF79
:1043C0003091EB003E7F3093EB003091ED003D7F6C
:1043D0003093ED003091EB0031603093EB0070933F
:1043E000EC002093ED005093F0002091EE0027FDAB
:1043F000E5CF80E008958F708093E90081E0089513
:104400008091DA0287FF11C08091E80082FD05C02B
:104410008091D9028111F8CF11C08091E8008B778B
:104420000BC08091D902882349F08091E80080FF79
:10443000F8CF8091E8008E778093E800089520916E
:10444000E4003091E50095E64091EC00842F817006
:1044500040FF23C08091E80080FD1DC08091D902FB
:10446000882399F0853099F08091EB0085FD11C08B
:104470004091E4005091E5002417350729F391504D
:1044800011F09A01E1CF84E0089582E0089583E07D
:10449000089581E0089580E008954091E80042FF8A
:1044A000DDCF08950E94C0220E94C822E0EEF0E015
:1044B000808181608083E8EDF0E080818F77808368
:1044C00019BCA7EDB0E08C918E7F8C9380818F7E9C
:1044D00080831092D80208950F931F93CF93DF9398
:1044E0000E94C0220E94C822C8EDD0E088818F7748
:1044F000888388818068888388818F7D888319BCC0
:104500001092D9021092D5021092D7021092D602C0
:1045100000EE10E0F80180818B7F808388818160CC
:10452000888342E060E080E00E94CB21E1EEF0E091
:1045300080818E7F8083E2EEF0E0808181608083E5
:10454000808188608083F80180818E7F808388816C
:1045500080618883DF91CF911F910F910895E8EDDD
:10456000F0E080818F7E8083E7EDF0E080818160E4
:10457000808384E082BF81E08093D8020C946C2217
:10458000E8EDF0E080818E7F80831092E200089554
:104590001092DA001092E10008951F920F920FB668
:1045A0000F9211242F933F934F935F936F937F93B9
:1045B0008F939F93AF93BF93EF93FF938091E1000D
:1045C00082FF0BC08091E20082FF07C08091E10072
:1045D0008B7F8093E1000E9443258091DA0080FF69
:1045E0001FC08091D80080FF1BC08091DA008E7FB1
:1045F0008093DA008091D90080FF0DC080E189BDF1
:1046000082E189BD09B400FEFDCF81E08093D9022B
:104610000E942A1F05C019BC1092D9020E94381F9F
:104620008091E10080FF19C08091E20080FF15C0F9
:104630008091E2008E7F8093E2008091E2008061B1
:104640008093E2008091D80080628093D80019BCEA
:1046500085E08093D9020E943C1F8091E10084FF95
:1046600030C08091E20084FF2CC080E189BD82E1EE
:1046700089BD09B400FEFDCF8091D8008F7D809365
:10468000D8008091E1008F7E8093E1008091E2006C
:104690008F7E8093E2008091E20081608093E2004F
:1046A0008091D502882311F084E007C08091E30057
:1046B00087FD02C081E001C083E08093D9020E949F
:1046C0003D1F8091E10083FF29C08091E20083FFBC
:1046D00025C08091E100877F8093E10082E0809394
:1046E000D9021092D5028091E1008E7F8093E10083
:1046F0008091E2008E7F8093E2008091E2008061F1
:104700008093E20042E060E080E00E94CB21809153
:10471000F00088608093F0000E943B1FFF91EF91B2
:10472000BF91AF919F918F917F916F915F914F91C9
:104730003F912F910F900FBE0F901F9018951F92D1
:104740000F920FB60F9211242F933F934F935F93C5
:104750006F937F938F939F93AF93BF93CF93DF9389
:10476000EF93FF93C091E900CF708091EC00D82FB8
:10477000D17080FDD0E81092E9008091F000877F31
:104780008093F00078940E94E3231092E9008091D6
:10479000F00088608093F000CD2BCF70C093E900CB
:1047A000FF91EF91DF91CF91BF91AF919F918F9149
:1047B0007F916F915F914F913F912F910F900FBE1D
:1047C0000F901F9018951F93CF93DF93CDB7DEB74F
:1047D000AA970FB6F894DEBF0FBECDBFEAEDF2E0A8
:1047E0008091F100819322E0E23EF207C9F70E9436
:1047F000481F8091E80083FF2EC18091DA029091DA
:10480000DB02492F50E04A30510508F024C1FA017B
:10481000EC58FF4F0C947325803821F0823809F052
:104820001AC108C08091D6029091D702992389F0CD
:1048300082600FC08091DE028F70873008F00BC15C
:104840008093E9008091EB0085FB882780F9109226
:10485000E9009091E800977F9093E8008093F10041
:104860001092F100D1C0282F2D7F09F0F4C08823C9
:1048700019F0823061F0EFC08091DC02813009F0E4
:10488000EAC0933009F080E08093D7022EC0809177
:10489000DC0281112AC08091DE028F702FEF280F79
:1048A000263008F0D8C08093E9002091EB0020FF6B
:1048B0001CC0933021F48091EB00806214C0909171
:1048C000EB0090619093EB0021E030E0A90102C081
:1048D000440F551F8A95E2F74093EA001092EA00D0
:1048E0008091EB0088608093EB001092E90080914A
:1048F000E800877F8093E8000E940022ACC081110D
:10490000AAC01091DC021F778091E3008078812B90
:104910008093E3008091E800877F8093E8000E9405
:1049200000228091E80080FFFCCF8091E300806846
:104930008093E300111102C082E001C083E0809304
:10494000D90289C08058823008F085C08091DC028D
:104950009091DD028C3D53E0950779F583E08A83E1
:104960008AE289834FB7F894DE01139620E03EE097
:1049700051E2E32FF0E050935700E49120FF03C091
:10498000E295EF703F5FEF708E2F90E0EA3010F00D
:10499000C79601C0C0968D939D932F5F243149F730
:1049A0004FBF8091E800877F8093E8006AE270E063
:1049B000CE0101960E940C2116C06091DE0270911A
:1049C000DF02AE014F5F5F4F0E945020BC01892B78
:1049D00009F441C09091E800977F9093E8008981A5
:1049E0009A810E946A218091E8008B778093E80089
:1049F00032C0803881F58091E800877F8093E8009D
:104A00008091D5028093F1008091E8008E7772CF7B
:104A1000811121C08091DC029091DD0299270297DB
:104A2000D4F48091E800877F8093E8008091DC02D5
:104A30008093D5020E9400228091D502811106C088
:104A40008091E30087FD02C081E001C084E0809393
:104A5000D9020E943E1F8091E80083FF0AC0809126
:104A6000E800877F8093E8008091EB00806280936C
:104A7000EB00AA960FB6F894DEBF0FBECDBFDF9154
:104A8000CF911F9108950895CF938091D9028823E3
:104A9000A1F0C091E900CF709091EC00892F817056
:104AA00090FD80E8C82B1092E9008091E80083FD1A
:104AB0000E94E323CF70C093E900CF91089597FB44
:104AC000072E16F4009407D077FD09D00E947925AF
:104AD00007FC05D03EF4909581959F4F0895709501
:104AE00061957F4F0895EE0FFF1F0590F491E02D23
:104AF0000994AA1BBB1B51E107C0AA1FBB1FA61725
:104B0000B70710F0A61BB70B881F991F5A95A9F776
:104B100080959095BC01CD010895F999FECF92BD85
:104B200081BDF89A992780B50895A8E1B0E042E0E8
:104B300050E00C94C125262FF999FECF92BD81BD7E
:104B4000F89A019700B4021639F01FBA20BD0FB6CB
:104B5000F894FA9AF99A0FBE08950396272F0E94A7
:104B60009C250E949B25252F0E949C25242F0C9478
:104B70009C250196272F0E949C250C949B25DC01E7
:104B8000CB01FC01F999FECF06C0F2BDE1BDF89A58
:104B9000319600B40D9241505040B8F70895F89402
:024BA000FFCF45
:104BA2002808643C071482028C1EE91ECA1EC61E17
:104BB200C21E01E200E900EA00B500B600B700CD6E
:104BC200008301CC008A0192019401210223022474
:104BD200022502260227022A02B300B4006F0070E7
:104BE20000818283E200E900EA00B500B600B70066
:104BF200CD008301CC008A0192019401210223029B
:104C020024022502260227022A02B300B4006F0002
:064C1200700081828300A6
:00000001FF
